{
  "_format": "hh-sol-artifact-1",
  "contractName": "Issuer",
  "sourceName": "contracts/Issuer.sol",
  "abi": [
    {
      "inputs": [
        {
          "internalType": "address",
          "name": "rwaToken",
          "type": "address"
        },
        {
          "internalType": "address",
          "name": "functionsRouterAddress",
          "type": "address"
        }
      ],
      "stateMutability": "nonpayable",
      "type": "constructor"
    },
    {
      "inputs": [],
      "name": "EmptySource",
      "type": "error"
    },
    {
      "inputs": [],
      "name": "LatestIssueInProgress",
      "type": "error"
    },
    {
      "inputs": [],
      "name": "NoInlineSecrets",
      "type": "error"
    },
    {
      "inputs": [],
      "name": "OnlyRouterCanFulfill",
      "type": "error"
    },
    {
      "anonymous": false,
      "inputs": [
        {
          "indexed": true,
          "internalType": "address",
          "name": "from",
          "type": "address"
        },
        {
          "indexed": true,
          "internalType": "address",
          "name": "to",
          "type": "address"
        }
      ],
      "name": "OwnershipTransferRequested",
      "type": "event"
    },
    {
      "anonymous": false,
      "inputs": [
        {
          "indexed": true,
          "internalType": "address",
          "name": "from",
          "type": "address"
        },
        {
          "indexed": true,
          "internalType": "address",
          "name": "to",
          "type": "address"
        }
      ],
      "name": "OwnershipTransferred",
      "type": "event"
    },
    {
      "anonymous": false,
      "inputs": [
        {
          "indexed": true,
          "internalType": "bytes32",
          "name": "id",
          "type": "bytes32"
        }
      ],
      "name": "RequestFulfilled",
      "type": "event"
    },
    {
      "anonymous": false,
      "inputs": [
        {
          "indexed": true,
          "internalType": "bytes32",
          "name": "id",
          "type": "bytes32"
        }
      ],
      "name": "RequestSent",
      "type": "event"
    },
    {
      "inputs": [],
      "name": "acceptOwnership",
      "outputs": [],
      "stateMutability": "nonpayable",
      "type": "function"
    },
    {
      "inputs": [],
      "name": "cancelPendingRequest",
      "outputs": [],
      "stateMutability": "nonpayable",
      "type": "function"
    },
    {
      "inputs": [],
      "name": "getNftMetadata",
      "outputs": [
        {
          "internalType": "string",
          "name": "",
          "type": "string"
        }
      ],
      "stateMutability": "view",
      "type": "function"
    },
    {
      "inputs": [
        {
          "internalType": "bytes32",
          "name": "requestId",
          "type": "bytes32"
        },
        {
          "internalType": "bytes",
          "name": "response",
          "type": "bytes"
        },
        {
          "internalType": "bytes",
          "name": "err",
          "type": "bytes"
        }
      ],
      "name": "handleOracleFulfillment",
      "outputs": [],
      "stateMutability": "nonpayable",
      "type": "function"
    },
    {
      "inputs": [
        {
          "internalType": "address",
          "name": "to",
          "type": "address"
        },
        {
          "internalType": "uint256",
          "name": "amount",
          "type": "uint256"
        },
        {
          "internalType": "string",
          "name": "uri",
          "type": "string"
        }
      ],
      "name": "issue",
      "outputs": [],
      "stateMutability": "nonpayable",
      "type": "function"
    },
    {
      "inputs": [
        {
          "internalType": "address",
          "name": "to",
          "type": "address"
        },
        {
          "internalType": "uint256",
          "name": "amount",
          "type": "uint256"
        },
        {
          "internalType": "uint64",
          "name": "subscriptionId",
          "type": "uint64"
        },
        {
          "internalType": "uint32",
          "name": "gasLimit",
          "type": "uint32"
        },
        {
          "internalType": "bytes32",
          "name": "donID",
          "type": "bytes32"
        }
      ],
      "name": "issueWithOracle",
      "outputs": [
        {
          "internalType": "bytes32",
          "name": "requestId",
          "type": "bytes32"
        }
      ],
      "stateMutability": "nonpayable",
      "type": "function"
    },
    {
      "inputs": [],
      "name": "owner",
      "outputs": [
        {
          "internalType": "address",
          "name": "",
          "type": "address"
        }
      ],
      "stateMutability": "view",
      "type": "function"
    },
    {
      "inputs": [
        {
          "internalType": "address",
          "name": "to",
          "type": "address"
        }
      ],
      "name": "transferOwnership",
      "outputs": [],
      "stateMutability": "nonpayable",
      "type": "function"
    }
  ],
  "bytecode": "0x61052060405261043b60c0818152906200196060e03960009062000024908262000255565b503480156200003257600080fd5b5060405162001d9b38038062001d9b83398101604081905262000055916200033e565b6001600160a01b0381166080523380600081620000b95760405162461bcd60e51b815260206004820152601860248201527f43616e6e6f7420736574206f776e657220746f207a65726f000000000000000060448201526064015b60405180910390fd5b600180546001600160a01b0319166001600160a01b0384811691909117909155811615620000ec57620000ec8162000102565b505050506001600160a01b031660a05262000376565b336001600160a01b038216036200015c5760405162461bcd60e51b815260206004820152601760248201527f43616e6e6f74207472616e7366657220746f2073656c660000000000000000006044820152606401620000b0565b600280546001600160a01b0319166001600160a01b03838116918217909255600154604051919216907fed8889f560326eb138920d842192f0eb3dd22b4f139c87a2c57538e05bae127890600090a350565b634e487b7160e01b600052604160045260246000fd5b600181811c90821680620001d957607f821691505b602082108103620001fa57634e487b7160e01b600052602260045260246000fd5b50919050565b601f82111562000250576000816000526020600020601f850160051c810160208610156200022b5750805b601f850160051c820191505b818110156200024c5782815560010162000237565b5050505b505050565b81516001600160401b03811115620002715762000271620001ae565b6200028981620002828454620001c4565b8462000200565b602080601f831160018114620002c15760008415620002a85750858301515b600019600386901b1c1916600185901b1785556200024c565b600085815260208120601f198616915b82811015620002f257888601518255948401946001909101908401620002d1565b5085821015620003115787850151600019600388901b60f8161c191681555b5050505050600190811b01905550565b80516001600160a01b03811681146200033957600080fd5b919050565b600080604083850312156200035257600080fd5b6200035d8362000321565b91506200036d6020840162000321565b90509250929050565b60805160a0516115b6620003aa600039600081816104870152610598015260008181610139015261094601526115b66000f3fe608060405234801561001057600080fd5b50600436106100885760003560e01c8063cb93ed161161005b578063cb93ed16146100eb578063e6b46ff5146100f3578063ebf469dc14610108578063f2fde38b1461011b57600080fd5b80630ca761751461008d57806379ba5097146100a25780638da5cb5b146100aa578063970c9c7d146100ca575b600080fd5b6100a061009b3660046110ab565b61012e565b005b6100a06101b2565b6001546040516001600160a01b0390911681526020015b60405180910390f35b6100dd6100d8366004611133565b610265565b6040519081526020016100c1565b6100a06103b0565b6100fb6103bf565b6040516100c191906111f1565b6100a0610116366004611204565b61044d565b6100a0610129366004611264565b6104fb565b336001600160a01b037f000000000000000000000000000000000000000000000000000000000000000016146101775760405163c6829f8360e01b815260040160405180910390fd5b61018283838361050f565b60405183907f85e1543bf2f84fe80c6badbce3648c8539ad1df4d2b3d822938ca0538be727e690600090a2505050565b6002546001600160a01b0316331461020a5760405162461bcd60e51b815260206004820152601660248201527526bab9ba10313290383937b837b9b2b21037bbb732b960511b60448201526064015b60405180910390fd5b600180546001600160a01b0319808216339081179093556002805490911690556040516001600160a01b03909116919082907f8be0079c531659141344cd1fd0a4f28419497f9722a3daafe3b4186f6b6457e090600090a350565b600061026f610613565b6003541561029057604051632db8f2c760e01b815260040160405180910390fd5b6102d16040805160e0810190915280600081526020016000815260200160008152602001606081526020016060815260200160608152602001606081525090565b610341306001600160a01b031663e6b46ff56040518163ffffffff1660e01b8152600401600060405180830381865afa158015610312573d6000803e3d6000fd5b505050506040513d6000823e601f3d908101601f1916820160405261033a919081019061127f565b8290610668565b61035561034d82610679565b868686610941565b6040805180820182526001600160a01b03998a1681526020808201998a526000848152600590915291909120905181546001600160a01b03191699169890981788559551600190970196909655505050600382905550919050565b6103b8610613565b6000600355565b600080546103cc906112f5565b80601f01602080910402602001604051908101604052809291908181526020018280546103f8906112f5565b80156104455780601f1061041a57610100808354040283529160200191610445565b820191906000526020600020905b81548152906001019060200180831161042857829003601f168201915b505050505081565b610455610613565b600480548291600091908261046983611345565b9091555060405163c1341c4f60e01b81529091506001600160a01b037f0000000000000000000000000000000000000000000000000000000000000000169063c1341c4f906104c290889085908990889060040161135e565b600060405180830381600087803b1580156104dc57600080fd5b505af11580156104f0573d6000803e3d6000fd5b505050505050505050565b610503610613565b61050c81610a13565b50565b805115610530578060405162461bcd60e51b815260040161020191906111f1565b826003540361060e57600480548391600091908261054d83611345565b909155506000868152600560209081526040918290208251808401845281546001600160a01b03908116808352600190930154938201849052935163c1341c4f60e01b8152949550937f00000000000000000000000000000000000000000000000000000000000000009093169263c1341c4f926105d39291879190899060040161135e565b600060405180830381600087803b1580156105ed57600080fd5b505af1158015610601573d6000803e3d6000fd5b5050600060035550505050505b505050565b6001546001600160a01b031633146106665760405162461bcd60e51b815260206004820152601660248201527527b7363c9031b0b63630b1363290313c9037bbb732b960511b6044820152606401610201565b565b6106758260008084610abd565b5050565b60606000610688610100610b3b565b90506106c16040518060400160405280600c81526020016b31b7b232a637b1b0ba34b7b760a11b81525082610b5c90919063ffffffff16565b82516106df9060028111156106d8576106d86113a3565b8290610b75565b6040805180820190915260088152676c616e677561676560c01b6020820152610709908290610b5c565b60408301516107209080156106d8576106d86113a3565b604080518082019091526006815265736f7572636560d01b6020820152610748908290610b5c565b6060830151610758908290610b5c565b60a083015151156107e4576040805180820190915260048152636172677360e01b6020820152610789908290610b5c565b61079281610bae565b60005b8360a00151518110156107da576107d28460a0015182815181106107bb576107bb6113b9565b602002602001015183610b5c90919063ffffffff16565b600101610795565b506107e481610bd2565b608083015151156108a857600083602001516002811115610807576108076113a3565b036108255760405163a80d31f760e01b815260040160405180910390fd5b60408051808201909152600f81526e39b2b1b932ba39a637b1b0ba34b7b760891b6020820152610856908290610b5c565b61086f836020015160028111156106d8576106d86113a3565b6040805180820190915260078152667365637265747360c81b6020820152610898908290610b5c565b60808301516108a8908290610bf0565b60c083015151156109395760408051808201909152600981526862797465734172677360b81b60208201526108de908290610b5c565b6108e781610bae565b60005b8360c001515181101561092f576109278460c001518281518110610910576109106113b9565b602002602001015183610bf090919063ffffffff16565b6001016108ea565b5061093981610bd2565b515192915050565b6000807f00000000000000000000000000000000000000000000000000000000000000006001600160a01b031663461d27628688600188886040518663ffffffff1660e01b81526004016109999594939291906113cf565b6020604051808303816000875af11580156109b8573d6000803e3d6000fd5b505050506040513d601f19601f820116820180604052508101906109dc9190611418565b60405190915081907f1131472297a800fee664d1d89cfa8f7676ff07189ecc53f80bbb5f4969099db890600090a295945050505050565b336001600160a01b03821603610a6b5760405162461bcd60e51b815260206004820152601760248201527f43616e6e6f74207472616e7366657220746f2073656c660000000000000000006044820152606401610201565b600280546001600160a01b0319166001600160a01b03838116918217909255600154604051919216907fed8889f560326eb138920d842192f0eb3dd22b4f139c87a2c57538e05bae127890600090a350565b8051600003610adf576040516322ce3edd60e01b815260040160405180910390fd5b83836002811115610af257610af26113a3565b90816002811115610b0557610b056113a3565b90525060408401828015610b1b57610b1b6113a3565b90818015610b2b57610b2b6113a3565b9052506060909301929092525050565b610b43610fab565b8051610b4f9083610bfd565b5060006020820152919050565b610b698260038351610c77565b815161060e9082610d96565b8151610b829060c2610dbe565b506106758282604051602001610b9a91815260200190565b604051602081830303815290604052610bf0565b610bb9816004610e27565b600181602001818151610bcc9190611431565b90525050565b610bdd816007610e27565b600181602001818151610bcc9190611444565b610b698260028351610c77565b604080518082019091526060815260006020820152610c1d602083611457565b15610c4557610c2d602083611457565b610c38906020611444565b610c429083611431565b91505b602080840183905260405180855260008152908184010181811015610c6957600080fd5b604052508290505b92915050565b6017816001600160401b031611610ca3578251610c9d9060e0600585901b168317610dbe565b50505050565b60ff816001600160401b031611610ce3578251610ccb906018611fe0600586901b1617610dbe565b508251610c9d906001600160401b0383166001610e3e565b61ffff816001600160401b031611610d24578251610d0c906019611fe0600586901b1617610dbe565b508251610c9d906001600160401b0383166002610e3e565b63ffffffff816001600160401b031611610d67578251610d4f90601a611fe0600586901b1617610dbe565b508251610c9d906001600160401b0383166004610e3e565b8251610d7e90601b611fe0600586901b1617610dbe565b508251610c9d906001600160401b0383166008610e3e565b604080518082019091526060815260006020820152610db783838451610ec3565b9392505050565b6040805180820190915260608152600060208201528251516000610de3826001611431565b905084602001518210610e0457610e0485610dff836002611479565b610f94565b8451602083820101858153508051821115610e1d578181525b5093949350505050565b815161060e90601f611fe0600585901b1617610dbe565b6040805180820190915260608152600060208201528351516000610e628285611431565b90508560200151811115610e7f57610e7f86610dff836002611479565b60006001610e8f86610100611574565b610e999190611444565b90508651828101878319825116178152508051831115610eb7578281525b50959695505050505050565b6040805180820190915260608152600060208201528251821115610ee657600080fd5b8351516000610ef58483611431565b90508560200151811115610f1257610f1286610dff836002611479565b855180518382016020019160009180851115610f2c578482525b505050602086015b60208610610f6c5780518252610f4b602083611431565b9150610f58602082611431565b9050610f65602087611444565b9550610f34565b51815160001960208890036101000a0190811690199190911617905250849150509392505050565b8151610fa08383610bfd565b50610c9d8382610d96565b6040518060400160405280610fd3604051806040016040528060608152602001600081525090565b8152602001600081525090565b634e487b7160e01b600052604160045260246000fd5b604051601f8201601f191681016001600160401b038111828210171561101e5761101e610fe0565b604052919050565b60006001600160401b0382111561103f5761103f610fe0565b50601f01601f191660200190565b600061106061105b84611026565b610ff6565b905082815283838301111561107457600080fd5b828260208301376000602084830101529392505050565b600082601f83011261109c57600080fd5b610db78383356020850161104d565b6000806000606084860312156110c057600080fd5b8335925060208401356001600160401b03808211156110de57600080fd5b6110ea8783880161108b565b9350604086013591508082111561110057600080fd5b5061110d8682870161108b565b9150509250925092565b80356001600160a01b038116811461112e57600080fd5b919050565b600080600080600060a0868803121561114b57600080fd5b61115486611117565b94506020860135935060408601356001600160401b038116811461117757600080fd5b9250606086013563ffffffff8116811461119057600080fd5b949793965091946080013592915050565b60005b838110156111bc5781810151838201526020016111a4565b50506000910152565b600081518084526111dd8160208601602086016111a1565b601f01601f19169290920160200192915050565b602081526000610db760208301846111c5565b60008060006060848603121561121957600080fd5b61122284611117565b92506020840135915060408401356001600160401b0381111561124457600080fd5b8401601f8101861361125557600080fd5b61110d8682356020840161104d565b60006020828403121561127657600080fd5b610db782611117565b60006020828403121561129157600080fd5b81516001600160401b038111156112a757600080fd5b8201601f810184136112b857600080fd5b80516112c661105b82611026565b8181528560208385010111156112db57600080fd5b6112ec8260208301602086016111a1565b95945050505050565b600181811c9082168061130957607f821691505b60208210810361132957634e487b7160e01b600052602260045260246000fd5b50919050565b634e487b7160e01b600052601160045260246000fd5b6000600182016113575761135761132f565b5060010190565b60018060a01b038516815283602082015282604082015260a06060820152600060a082015260c06080820152600061139960c08301846111c5565b9695505050505050565b634e487b7160e01b600052602160045260246000fd5b634e487b7160e01b600052603260045260246000fd5b6001600160401b038616815260a0602082015260006113f160a08301876111c5565b61ffff9590951660408301525063ffffffff92909216606083015260809091015292915050565b60006020828403121561142a57600080fd5b5051919050565b80820180821115610c7157610c7161132f565b81810381811115610c7157610c7161132f565b60008261147457634e487b7160e01b600052601260045260246000fd5b500690565b8082028115828204841417610c7157610c7161132f565b600181815b808511156114cb5781600019048211156114b1576114b161132f565b808516156114be57918102915b93841c9390800290611495565b509250929050565b6000826114e257506001610c71565b816114ef57506000610c71565b8160018114611505576002811461150f5761152b565b6001915050610c71565b60ff8411156115205761152061132f565b50506001821b610c71565b5060208310610133831016604e8410600b841016171561154e575081810a610c71565b6115588383611490565b806000190482111561156c5761156c61132f565b029392505050565b6000610db783836114d356fea2646970667358221220377d1dc56a9b0cf7aa2d84c6d91f892a07b4cd26d90d5542298f3fe93d3e33bc64736f6c63430008180033636f6e7374207b20657468657273207d203d20617761697420696d706f727428276e706d3a65746865727340362e31302e3027293b636f6e73742048617368203d20617761697420696d706f727428276e706d3a697066732d6f6e6c792d6861736840342e302e3027293b636f6e737420617069526573706f6e7365203d2061776169742046756e6374696f6e732e6d616b654874747052657175657374287b2020202075726c3a206068747470733a2f2f6170692e627269646765646174616f75747075742e636f6d2f6170692f76322f4f446174612f746573742f50726f70657274792827505f35646261316662393461613430353562396632393639366627293f6163636573735f746f6b656e3d3662616361353437373432633666393661366666373162313338343234663231602c7d293b636f6e7374207265616c45737461746541646472657373203d20617069526573706f6e73652e646174612e556e706172736564416464726573733b636f6e737420796561724275696c74203d204e756d62657228617069526573706f6e73652e646174612e596561724275696c74293b636f6e7374206c6f7453697a6553717561726546656574203d204e756d62657228617069526573706f6e73652e646174612e4c6f7453697a6553717561726546656574293b636f6e7374206c6976696e6741726561203d204e756d62657228617069526573706f6e73652e646174612e4c6976696e6741726561293b636f6e737420626564726f6f6d73546f74616c203d204e756d62657228617069526573706f6e73652e646174612e426564726f6f6d73546f74616c293b636f6e7374206d65746164617461203d207b6e616d653a20605265616c2045737461746520546f6b656e602c617474726962757465733a205b7b2074726169745f747970653a20607265616c45737461746541646472657373602c2076616c75653a207265616c45737461746541646472657373207d2c7b2074726169745f747970653a2060796561724275696c74602c2076616c75653a20796561724275696c74207d2c7b2074726169745f747970653a20606c6f7453697a6553717561726546656574602c2076616c75653a206c6f7453697a6553717561726546656574207d2c7b2074726169745f747970653a20606c6976696e6741726561602c2076616c75653a206c6976696e6741726561207d2c7b2074726169745f747970653a2060626564726f6f6d73546f74616c602c2076616c75653a20626564726f6f6d73546f74616c207d5d7d3b636f6e7374206d65746164617461537472696e67203d204a534f4e2e737472696e67696679286d65746164617461293b636f6e73742069706673436964203d20617761697420486173682e6f66286d65746164617461537472696e67293b72657475726e2046756e6374696f6e732e656e636f6465537472696e672860697066733a2f2f247b697066734369647d60293b",
  "linkReferences": {},
  "deployedLinkReferences": {}
}