{
  "_format": "hh-sol-artifact-1",
  "contractName": "RWAToken",
  "sourceName": "contracts/RWAToken.sol",
  "abi": [
    {
      "inputs": [
        {
          "internalType": "string",
          "name": "uri",
          "type": "string"
        }
      ],
      "stateMutability": "nonpayable",
      "type": "constructor"
    },
    {
      "inputs": [
        {
          "internalType": "address",
          "name": "msgSender",
          "type": "address"
        }
      ],
      "name": "ERC1155Core_CallerIsNotIssuerOrItself",
      "type": "error"
    },
    {
      "inputs": [
        {
          "internalType": "address",
          "name": "sender",
          "type": "address"
        },
        {
          "internalType": "uint256",
          "name": "balance",
          "type": "uint256"
        },
        {
          "internalType": "uint256",
          "name": "needed",
          "type": "uint256"
        },
        {
          "internalType": "uint256",
          "name": "tokenId",
          "type": "uint256"
        }
      ],
      "name": "ERC1155InsufficientBalance",
      "type": "error"
    },
    {
      "inputs": [
        {
          "internalType": "address",
          "name": "approver",
          "type": "address"
        }
      ],
      "name": "ERC1155InvalidApprover",
      "type": "error"
    },
    {
      "inputs": [
        {
          "internalType": "uint256",
          "name": "idsLength",
          "type": "uint256"
        },
        {
          "internalType": "uint256",
          "name": "valuesLength",
          "type": "uint256"
        }
      ],
      "name": "ERC1155InvalidArrayLength",
      "type": "error"
    },
    {
      "inputs": [
        {
          "internalType": "address",
          "name": "operator",
          "type": "address"
        }
      ],
      "name": "ERC1155InvalidOperator",
      "type": "error"
    },
    {
      "inputs": [
        {
          "internalType": "address",
          "name": "receiver",
          "type": "address"
        }
      ],
      "name": "ERC1155InvalidReceiver",
      "type": "error"
    },
    {
      "inputs": [
        {
          "internalType": "address",
          "name": "sender",
          "type": "address"
        }
      ],
      "name": "ERC1155InvalidSender",
      "type": "error"
    },
    {
      "inputs": [
        {
          "internalType": "address",
          "name": "operator",
          "type": "address"
        },
        {
          "internalType": "address",
          "name": "owner",
          "type": "address"
        }
      ],
      "name": "ERC1155MissingApprovalForAll",
      "type": "error"
    },
    {
      "inputs": [
        {
          "internalType": "address",
          "name": "owner",
          "type": "address"
        }
      ],
      "name": "OwnableInvalidOwner",
      "type": "error"
    },
    {
      "inputs": [
        {
          "internalType": "address",
          "name": "account",
          "type": "address"
        }
      ],
      "name": "OwnableUnauthorizedAccount",
      "type": "error"
    },
    {
      "anonymous": false,
      "inputs": [
        {
          "indexed": true,
          "internalType": "address",
          "name": "account",
          "type": "address"
        },
        {
          "indexed": true,
          "internalType": "address",
          "name": "operator",
          "type": "address"
        },
        {
          "indexed": false,
          "internalType": "bool",
          "name": "approved",
          "type": "bool"
        }
      ],
      "name": "ApprovalForAll",
      "type": "event"
    },
    {
      "anonymous": false,
      "inputs": [
        {
          "indexed": true,
          "internalType": "address",
          "name": "previousOwner",
          "type": "address"
        },
        {
          "indexed": true,
          "internalType": "address",
          "name": "newOwner",
          "type": "address"
        }
      ],
      "name": "OwnershipTransferred",
      "type": "event"
    },
    {
      "anonymous": false,
      "inputs": [
        {
          "indexed": true,
          "internalType": "address",
          "name": "issuer",
          "type": "address"
        }
      ],
      "name": "SetIssuer",
      "type": "event"
    },
    {
      "anonymous": false,
      "inputs": [
        {
          "indexed": true,
          "internalType": "address",
          "name": "operator",
          "type": "address"
        },
        {
          "indexed": true,
          "internalType": "address",
          "name": "from",
          "type": "address"
        },
        {
          "indexed": true,
          "internalType": "address",
          "name": "to",
          "type": "address"
        },
        {
          "indexed": false,
          "internalType": "uint256[]",
          "name": "ids",
          "type": "uint256[]"
        },
        {
          "indexed": false,
          "internalType": "uint256[]",
          "name": "values",
          "type": "uint256[]"
        }
      ],
      "name": "TransferBatch",
      "type": "event"
    },
    {
      "anonymous": false,
      "inputs": [
        {
          "indexed": true,
          "internalType": "address",
          "name": "operator",
          "type": "address"
        },
        {
          "indexed": true,
          "internalType": "address",
          "name": "from",
          "type": "address"
        },
        {
          "indexed": true,
          "internalType": "address",
          "name": "to",
          "type": "address"
        },
        {
          "indexed": false,
          "internalType": "uint256",
          "name": "id",
          "type": "uint256"
        },
        {
          "indexed": false,
          "internalType": "uint256",
          "name": "value",
          "type": "uint256"
        }
      ],
      "name": "TransferSingle",
      "type": "event"
    },
    {
      "anonymous": false,
      "inputs": [
        {
          "indexed": false,
          "internalType": "string",
          "name": "value",
          "type": "string"
        },
        {
          "indexed": true,
          "internalType": "uint256",
          "name": "id",
          "type": "uint256"
        }
      ],
      "name": "URI",
      "type": "event"
    },
    {
      "inputs": [
        {
          "internalType": "address",
          "name": "account",
          "type": "address"
        },
        {
          "internalType": "uint256",
          "name": "id",
          "type": "uint256"
        }
      ],
      "name": "balanceOf",
      "outputs": [
        {
          "internalType": "uint256",
          "name": "",
          "type": "uint256"
        }
      ],
      "stateMutability": "view",
      "type": "function"
    },
    {
      "inputs": [
        {
          "internalType": "address[]",
          "name": "accounts",
          "type": "address[]"
        },
        {
          "internalType": "uint256[]",
          "name": "ids",
          "type": "uint256[]"
        }
      ],
      "name": "balanceOfBatch",
      "outputs": [
        {
          "internalType": "uint256[]",
          "name": "",
          "type": "uint256[]"
        }
      ],
      "stateMutability": "view",
      "type": "function"
    },
    {
      "inputs": [
        {
          "internalType": "address",
          "name": "account",
          "type": "address"
        },
        {
          "internalType": "uint256",
          "name": "id",
          "type": "uint256"
        },
        {
          "internalType": "uint256",
          "name": "amount",
          "type": "uint256"
        }
      ],
      "name": "burn",
      "outputs": [],
      "stateMutability": "nonpayable",
      "type": "function"
    },
    {
      "inputs": [
        {
          "internalType": "address",
          "name": "account",
          "type": "address"
        },
        {
          "internalType": "uint256[]",
          "name": "ids",
          "type": "uint256[]"
        },
        {
          "internalType": "uint256[]",
          "name": "amounts",
          "type": "uint256[]"
        }
      ],
      "name": "burnBatch",
      "outputs": [],
      "stateMutability": "nonpayable",
      "type": "function"
    },
    {
      "inputs": [
        {
          "internalType": "uint256",
          "name": "id",
          "type": "uint256"
        }
      ],
      "name": "exists",
      "outputs": [
        {
          "internalType": "bool",
          "name": "",
          "type": "bool"
        }
      ],
      "stateMutability": "view",
      "type": "function"
    },
    {
      "inputs": [
        {
          "internalType": "address",
          "name": "account",
          "type": "address"
        },
        {
          "internalType": "address",
          "name": "operator",
          "type": "address"
        }
      ],
      "name": "isApprovedForAll",
      "outputs": [
        {
          "internalType": "bool",
          "name": "",
          "type": "bool"
        }
      ],
      "stateMutability": "view",
      "type": "function"
    },
    {
      "inputs": [
        {
          "internalType": "address",
          "name": "_to",
          "type": "address"
        },
        {
          "internalType": "uint256",
          "name": "_id",
          "type": "uint256"
        },
        {
          "internalType": "uint256",
          "name": "_amount",
          "type": "uint256"
        },
        {
          "internalType": "bytes",
          "name": "_data",
          "type": "bytes"
        },
        {
          "internalType": "string",
          "name": "_tokenUri",
          "type": "string"
        }
      ],
      "name": "mint",
      "outputs": [],
      "stateMutability": "nonpayable",
      "type": "function"
    },
    {
      "inputs": [
        {
          "internalType": "address",
          "name": "_to",
          "type": "address"
        },
        {
          "internalType": "uint256[]",
          "name": "_ids",
          "type": "uint256[]"
        },
        {
          "internalType": "uint256[]",
          "name": "_amounts",
          "type": "uint256[]"
        },
        {
          "internalType": "bytes",
          "name": "_data",
          "type": "bytes"
        },
        {
          "internalType": "string[]",
          "name": "_tokenUris",
          "type": "string[]"
        }
      ],
      "name": "mintBatch",
      "outputs": [],
      "stateMutability": "nonpayable",
      "type": "function"
    },
    {
      "inputs": [],
      "name": "owner",
      "outputs": [
        {
          "internalType": "address",
          "name": "",
          "type": "address"
        }
      ],
      "stateMutability": "view",
      "type": "function"
    },
    {
      "inputs": [],
      "name": "renounceOwnership",
      "outputs": [],
      "stateMutability": "nonpayable",
      "type": "function"
    },
    {
      "inputs": [
        {
          "internalType": "address",
          "name": "from",
          "type": "address"
        },
        {
          "internalType": "address",
          "name": "to",
          "type": "address"
        },
        {
          "internalType": "uint256[]",
          "name": "ids",
          "type": "uint256[]"
        },
        {
          "internalType": "uint256[]",
          "name": "values",
          "type": "uint256[]"
        },
        {
          "internalType": "bytes",
          "name": "data",
          "type": "bytes"
        }
      ],
      "name": "safeBatchTransferFrom",
      "outputs": [],
      "stateMutability": "nonpayable",
      "type": "function"
    },
    {
      "inputs": [
        {
          "internalType": "address",
          "name": "from",
          "type": "address"
        },
        {
          "internalType": "address",
          "name": "to",
          "type": "address"
        },
        {
          "internalType": "uint256",
          "name": "id",
          "type": "uint256"
        },
        {
          "internalType": "uint256",
          "name": "value",
          "type": "uint256"
        },
        {
          "internalType": "bytes",
          "name": "data",
          "type": "bytes"
        }
      ],
      "name": "safeTransferFrom",
      "outputs": [],
      "stateMutability": "nonpayable",
      "type": "function"
    },
    {
      "inputs": [
        {
          "internalType": "address",
          "name": "operator",
          "type": "address"
        },
        {
          "internalType": "bool",
          "name": "approved",
          "type": "bool"
        }
      ],
      "name": "setApprovalForAll",
      "outputs": [],
      "stateMutability": "nonpayable",
      "type": "function"
    },
    {
      "inputs": [
        {
          "internalType": "address",
          "name": "_issuer",
          "type": "address"
        }
      ],
      "name": "setIssuer",
      "outputs": [],
      "stateMutability": "nonpayable",
      "type": "function"
    },
    {
      "inputs": [
        {
          "internalType": "bytes4",
          "name": "interfaceId",
          "type": "bytes4"
        }
      ],
      "name": "supportsInterface",
      "outputs": [
        {
          "internalType": "bool",
          "name": "",
          "type": "bool"
        }
      ],
      "stateMutability": "view",
      "type": "function"
    },
    {
      "inputs": [],
      "name": "totalSupply",
      "outputs": [
        {
          "internalType": "uint256",
          "name": "",
          "type": "uint256"
        }
      ],
      "stateMutability": "view",
      "type": "function"
    },
    {
      "inputs": [
        {
          "internalType": "uint256",
          "name": "id",
          "type": "uint256"
        }
      ],
      "name": "totalSupply",
      "outputs": [
        {
          "internalType": "uint256",
          "name": "",
          "type": "uint256"
        }
      ],
      "stateMutability": "view",
      "type": "function"
    },
    {
      "inputs": [
        {
          "internalType": "address",
          "name": "newOwner",
          "type": "address"
        }
      ],
      "name": "transferOwnership",
      "outputs": [],
      "stateMutability": "nonpayable",
      "type": "function"
    },
    {
      "inputs": [
        {
          "internalType": "uint256",
          "name": "tokenId",
          "type": "uint256"
        }
      ],
      "name": "uri",
      "outputs": [
        {
          "internalType": "string",
          "name": "",
          "type": "string"
        }
      ],
      "stateMutability": "view",
      "type": "function"
    }
  ],
  "bytecode": "0x60806040523480156200001157600080fd5b5060405162001ed738038062001ed7833981016040819052620000349162000100565b803381620000428162000086565b506001600160a01b0381166200007257604051631e4fbdf760e01b81526000600482015260240160405180910390fd5b6200007d8162000098565b50505062000332565b600262000094828262000266565b5050565b600580546001600160a01b038381166001600160a01b0319831681179093556040519116919082907f8be0079c531659141344cd1fd0a4f28419497f9722a3daafe3b4186f6b6457e090600090a35050565b634e487b7160e01b600052604160045260246000fd5b600060208083850312156200011457600080fd5b82516001600160401b03808211156200012c57600080fd5b818501915085601f8301126200014157600080fd5b815181811115620001565762000156620000ea565b604051601f8201601f19908116603f01168101908382118183101715620001815762000181620000ea565b8160405282815288868487010111156200019a57600080fd5b600093505b82841015620001be57848401860151818501870152928501926200019f565b600086848301015280965050505050505092915050565b600181811c90821680620001ea57607f821691505b6020821081036200020b57634e487b7160e01b600052602260045260246000fd5b50919050565b601f82111562000261576000816000526020600020601f850160051c810160208610156200023c5750805b601f850160051c820191505b818110156200025d5782815560010162000248565b5050505b505050565b81516001600160401b03811115620002825762000282620000ea565b6200029a81620002938454620001d5565b8462000211565b602080601f831160018114620002d25760008415620002b95750858301515b600019600386901b1c1916600185901b1785556200025d565b600085815260208120601f198616915b828110156200030357888601518255948401946001909101908401620002e2565b5085821015620003225787850151600019600388901b60f8161c191681555b5050505050600190811b01905550565b611b9580620003426000396000f3fe608060405234801561001057600080fd5b50600436106101205760003560e01c8063715018a6116100ad578063c1341c4f11610071578063c1341c4f1461027c578063e985e9c51461028f578063f242432a146102a2578063f2fde38b146102b5578063f5298aca146102c857600080fd5b8063715018a6146102135780638da5cb5b1461021b578063a22cb46514610236578063b942f8cb14610249578063bd85b0391461025c57600080fd5b80632eb2c2d6116100f45780632eb2c2d6146101965780634e1273f4146101ab5780634f558e79146101cb57806355cc4e57146101ed5780636b20c4541461020057600080fd5b8062fdd58e1461012557806301ffc9a71461014b5780630e89341c1461016e57806318160ddd1461018e575b600080fd5b610138610133366004611206565b6102db565b6040519081526020015b60405180910390f35b61015e610159366004611246565b610303565b6040519015158152602001610142565b61018161017c366004611263565b610353565b60405161014291906112c2565b600454610138565b6101a96101a436600461141f565b610411565b005b6101be6101b93660046114c9565b61047d565b60405161014291906115c5565b61015e6101d9366004611263565b600090815260036020526040902054151590565b6101a96101fb3660046115d8565b61054a565b6101a961020e3660046115f3565b61059c565b6101a961063b565b6005546040516001600160a01b039091168152602001610142565b6101a9610244366004611667565b61064f565b6101a96102573660046116a3565b61065e565b61013861026a366004611263565b60009081526003602052604090205490565b6101a961028a3660046117d5565b61070c565b61015e61029d36600461182d565b61076b565b6101a96102b0366004611860565b610799565b6101a96102c33660046115d8565b6107f8565b6101a96102d63660046118c5565b610836565b6000818152602081815260408083206001600160a01b03861684529091529020545b92915050565b60006001600160e01b03198216636cdb3d1360e11b148061033457506001600160e01b031982166303a24d0760e21b145b806102fd57506301ffc9a760e01b6001600160e01b03198316146102fd565b600081815260076020526040812080546060929190610371906118f8565b80601f016020809104026020016040519081016040528092919081815260200182805461039d906118f8565b80156103ea5780601f106103bf576101008083540402835291602001916103ea565b820191906000526020600020905b8154815290600101906020018083116103cd57829003601f168201915b50505050509050600081511161040857610403836108a7565b61040a565b805b9392505050565b336001600160a01b03861681148015906104325750610430868261076b565b155b156104685760405163711bec9160e11b81526001600160a01b038083166004830152871660248201526044015b60405180910390fd5b610475868686868661093b565b505050505050565b606081518351146104ae5781518351604051635b05999160e01b81526004810192909252602482015260440161045f565b6000835167ffffffffffffffff8111156104ca576104ca6112d5565b6040519080825280602002602001820160405280156104f3578160200160208202803683370190505b50905060005b84518110156105425760208082028601015161051d906020808402870101516102db565b82828151811061052f5761052f611932565b60209081029190910101526001016104f9565b509392505050565b6105526109a2565b600680546001600160a01b0319166001600160a01b0383169081179091556040517fd56ed7b1c1110348b1fbf418469f6fc4acc32d9b675e9e1e448cc19169a64ca090600090a250565b3330148015906105b757506006546001600160a01b03163314155b156105d757604051637725137960e11b815233600482015260240161045f565b6001600160a01b03831633148015906105f757506105f5833361076b565b155b1561062b57335b60405163711bec9160e11b81526001600160a01b039182166004820152908416602482015260440161045f565b6106368383836109cf565b505050565b6106436109a2565b61064d6000610a15565b565b61065a338383610a67565b5050565b33301480159061067957506006546001600160a01b03163314155b1561069957604051637725137960e11b815233600482015260240161045f565b6106a585858585610afd565b60005b8451811015610475578181815181106106c3576106c3611932565b6020026020010151600760008784815181106106e1576106e1611932565b6020026020010151815260200190815260200160002090816107039190611990565b506001016106a8565b33301480159061072757506006546001600160a01b03163314155b1561074757604051637725137960e11b815233600482015260240161045f565b61075385858585610b3b565b60008481526007602052604090206104758282611990565b6001600160a01b03918216600090815260016020908152604080832093909416825291909152205460ff1690565b336001600160a01b03861681148015906107ba57506107b8868261076b565b155b156107eb5760405163711bec9160e11b81526001600160a01b0380831660048301528716602482015260440161045f565b6104758686868686610b98565b6108006109a2565b6001600160a01b03811661082a57604051631e4fbdf760e01b81526000600482015260240161045f565b61083381610a15565b50565b33301480159061085157506006546001600160a01b03163314155b1561087157604051637725137960e11b815233600482015260240161045f565b6001600160a01b0383163314801590610891575061088f833361076b565b155b1561089c57336105fe565b610636838383610c26565b6060600280546108b6906118f8565b80601f01602080910402602001604051908101604052809291908181526020018280546108e2906118f8565b801561092f5780601f106109045761010080835404028352916020019161092f565b820191906000526020600020905b81548152906001019060200180831161091257829003601f168201915b50505050509050919050565b6001600160a01b03841661096557604051632bfa23e760e11b81526000600482015260240161045f565b6001600160a01b03851661098e57604051626a0d4560e21b81526000600482015260240161045f565b61099b8585858585610c8a565b5050505050565b6005546001600160a01b0316331461064d5760405163118cdaa760e01b815233600482015260240161045f565b6001600160a01b0383166109f857604051626a0d4560e21b81526000600482015260240161045f565b610636836000848460405180602001604052806000815250610c8a565b600580546001600160a01b038381166001600160a01b0319831681179093556040519116919082907f8be0079c531659141344cd1fd0a4f28419497f9722a3daafe3b4186f6b6457e090600090a35050565b6001600160a01b038216610a905760405162ced3e160e81b81526000600482015260240161045f565b6001600160a01b03838116600081815260016020908152604080832094871680845294825291829020805460ff191686151590811790915591519182527f17307eab39ab6107e8899845ad3d59bd9653f200f220920489ca2b5937696c31910160405180910390a3505050565b6001600160a01b038416610b2757604051632bfa23e760e11b81526000600482015260240161045f565b610b35600085858585610c8a565b50505050565b6001600160a01b038416610b6557604051632bfa23e760e11b81526000600482015260240161045f565b60408051600180825260208201869052818301908152606082018590526080820190925290610475600087848487610c8a565b6001600160a01b038416610bc257604051632bfa23e760e11b81526000600482015260240161045f565b6001600160a01b038516610beb57604051626a0d4560e21b81526000600482015260240161045f565b60408051600180825260208201869052818301908152606082018590526080820190925290610c1d8787848487610c8a565b50505050505050565b6001600160a01b038316610c4f57604051626a0d4560e21b81526000600482015260240161045f565b604080516001808252602082018590528183019081526060820184905260a0820190925260006080820181815291929161099b918791859085905b610c9685858585610cdd565b6001600160a01b0384161561099b5782513390600103610ccf5760208481015190840151610cc8838989858589610dc9565b5050610475565b610475818787878787610eed565b610ce984848484610fd6565b6001600160a01b038416610d69576000805b8351811015610d4f5760208181028481018201519086018201516000908152600390925260408220805491928392610d34908490611a50565b90915550610d4490508184611a50565b925050600101610cfb565b508060046000828254610d629190611a50565b9091555050505b6001600160a01b038316610b35576000805b8351811015610db8576020818102848101820151908601820151600090815260039092526040909120805482900390559190910190600101610d7b565b506004805491909103905550505050565b6001600160a01b0384163b156104755760405163f23a6e6160e01b81526001600160a01b0385169063f23a6e6190610e0d9089908990889088908890600401611a71565b6020604051808303816000875af1925050508015610e48575060408051601f3d908101601f19168201909252610e4591810190611ab6565b60015b610eb1573d808015610e76576040519150601f19603f3d011682016040523d82523d6000602084013e610e7b565b606091505b508051600003610ea957604051632bfa23e760e11b81526001600160a01b038616600482015260240161045f565b805181602001fd5b6001600160e01b0319811663f23a6e6160e01b14610c1d57604051632bfa23e760e11b81526001600160a01b038616600482015260240161045f565b6001600160a01b0384163b156104755760405163bc197c8160e01b81526001600160a01b0385169063bc197c8190610f319089908990889088908890600401611ad3565b6020604051808303816000875af1925050508015610f6c575060408051601f3d908101601f19168201909252610f6991810190611ab6565b60015b610f9a573d808015610e76576040519150601f19603f3d011682016040523d82523d6000602084013e610e7b565b6001600160e01b0319811663bc197c8160e01b14610c1d57604051632bfa23e760e11b81526001600160a01b038616600482015260240161045f565b80518251146110055781518151604051635b05999160e01b81526004810192909252602482015260440161045f565b3360005b835181101561110b576020818102858101820151908501909101516001600160a01b038816156110bc576000828152602081815260408083206001600160a01b038c16845290915290205481811015611095576040516303dee4c560e01b81526001600160a01b038a16600482015260248101829052604481018390526064810184905260840161045f565b6000838152602081815260408083206001600160a01b038d16845290915290209082900390555b6001600160a01b03871615611101576000828152602081815260408083206001600160a01b038b168452909152812080548392906110fb908490611a50565b90915550505b5050600101611009565b50825160010361118c5760208301516000906020840151909150856001600160a01b0316876001600160a01b0316846001600160a01b03167fc3d58168c5ae7397731d063d5bbf3d657854427343f4c083240f7aacaa2d0f62858560405161117d929190918252602082015260400190565b60405180910390a4505061099b565b836001600160a01b0316856001600160a01b0316826001600160a01b03167f4a39dc06d4c0dbc64b70af90fd698a233a518aa5d07e595d983b8c0526c8f7fb86866040516111db929190611b31565b60405180910390a45050505050565b80356001600160a01b038116811461120157600080fd5b919050565b6000806040838503121561121957600080fd5b611222836111ea565b946020939093013593505050565b6001600160e01b03198116811461083357600080fd5b60006020828403121561125857600080fd5b813561040a81611230565b60006020828403121561127557600080fd5b5035919050565b6000815180845260005b818110156112a257602081850181015186830182015201611286565b506000602082860101526020601f19601f83011685010191505092915050565b60208152600061040a602083018461127c565b634e487b7160e01b600052604160045260246000fd5b604051601f8201601f1916810167ffffffffffffffff81118282101715611314576113146112d5565b604052919050565b600067ffffffffffffffff821115611336576113366112d5565b5060051b60200190565b600082601f83011261135157600080fd5b813560206113666113618361131c565b6112eb565b8083825260208201915060208460051b87010193508684111561138857600080fd5b602086015b848110156113a4578035835291830191830161138d565b509695505050505050565b600082601f8301126113c057600080fd5b813567ffffffffffffffff8111156113da576113da6112d5565b6113ed601f8201601f19166020016112eb565b81815284602083860101111561140257600080fd5b816020850160208301376000918101602001919091529392505050565b600080600080600060a0868803121561143757600080fd5b611440866111ea565b945061144e602087016111ea565b9350604086013567ffffffffffffffff8082111561146b57600080fd5b61147789838a01611340565b9450606088013591508082111561148d57600080fd5b61149989838a01611340565b935060808801359150808211156114af57600080fd5b506114bc888289016113af565b9150509295509295909350565b600080604083850312156114dc57600080fd5b823567ffffffffffffffff808211156114f457600080fd5b818501915085601f83011261150857600080fd5b813560206115186113618361131c565b82815260059290921b8401810191818101908984111561153757600080fd5b948201945b8386101561155c5761154d866111ea565b8252948201949082019061153c565b9650508601359250508082111561157257600080fd5b5061157f85828601611340565b9150509250929050565b60008151808452602080850194506020840160005b838110156115ba5781518752958201959082019060010161159e565b509495945050505050565b60208152600061040a6020830184611589565b6000602082840312156115ea57600080fd5b61040a826111ea565b60008060006060848603121561160857600080fd5b611611846111ea565b9250602084013567ffffffffffffffff8082111561162e57600080fd5b61163a87838801611340565b9350604086013591508082111561165057600080fd5b5061165d86828701611340565b9150509250925092565b6000806040838503121561167a57600080fd5b611683836111ea565b91506020830135801515811461169857600080fd5b809150509250929050565b600080600080600060a086880312156116bb57600080fd5b6116c4866111ea565b945060208087013567ffffffffffffffff808211156116e257600080fd5b6116ee8a838b01611340565b9650604089013591508082111561170457600080fd5b6117108a838b01611340565b9550606089013591508082111561172657600080fd5b6117328a838b016113af565b9450608089013591508082111561174857600080fd5b818901915089601f83011261175c57600080fd5b813561176a6113618261131c565b81815260059190911b8301840190848101908c83111561178957600080fd5b8585015b838110156117c1578035858111156117a55760008081fd5b6117b38f89838a01016113af565b84525091860191860161178d565b508096505050505050509295509295909350565b600080600080600060a086880312156117ed57600080fd5b6117f6866111ea565b94506020860135935060408601359250606086013567ffffffffffffffff8082111561182157600080fd5b61149989838a016113af565b6000806040838503121561184057600080fd5b611849836111ea565b9150611857602084016111ea565b90509250929050565b600080600080600060a0868803121561187857600080fd5b611881866111ea565b945061188f602087016111ea565b93506040860135925060608601359150608086013567ffffffffffffffff8111156118b957600080fd5b6114bc888289016113af565b6000806000606084860312156118da57600080fd5b6118e3846111ea565b95602085013595506040909401359392505050565b600181811c9082168061190c57607f821691505b60208210810361192c57634e487b7160e01b600052602260045260246000fd5b50919050565b634e487b7160e01b600052603260045260246000fd5b601f821115610636576000816000526020600020601f850160051c810160208610156119715750805b601f850160051c820191505b818110156104755782815560010161197d565b815167ffffffffffffffff8111156119aa576119aa6112d5565b6119be816119b884546118f8565b84611948565b602080601f8311600181146119f357600084156119db5750858301515b600019600386901b1c1916600185901b178555610475565b600085815260208120601f198616915b82811015611a2257888601518255948401946001909101908401611a03565b5085821015611a405787850151600019600388901b60f8161c191681555b5050505050600190811b01905550565b808201808211156102fd57634e487b7160e01b600052601160045260246000fd5b6001600160a01b03868116825285166020820152604081018490526060810183905260a060808201819052600090611aab9083018461127c565b979650505050505050565b600060208284031215611ac857600080fd5b815161040a81611230565b6001600160a01b0386811682528516602082015260a060408201819052600090611aff90830186611589565b8281036060840152611b118186611589565b90508281036080840152611b25818561127c565b98975050505050505050565b604081526000611b446040830185611589565b8281036020840152611b568185611589565b9594505050505056fea2646970667358221220b474da86eb039668c877e0c3d02a474ae635beaf0c81d5eec878b3bbaeb9e6b264736f6c63430008180033",
  "linkReferences": {},
  "deployedLinkReferences": {}
}